:020000040800F2
:10000000301900209D010008A5790008194A000850
:10001000FD670008F50E000825AC00080000000090
:10002000000000000000000000000000F97A000855
:100030003915000800000000557A0008D58900082D
:10004000B7010008B7010008B7010008B7010008B0
:10005000B7010008B7010008B7010008B7010008A0
:10006000B7010008B7010008B7010008B701000890
:10007000B7010008B7010008B7010008B701000880
:10008000B7010008B7010008B7010008B701000870
:10009000B7010008B7010008B7010008B701000860
:1000A000B7010008B7010008B7010008B701000850
:1000B000B7010008B7010008B7010008B701000840
:1000C000B7010008B7010008B7010008B701000830
:1000D000B7010008B7010008B7010008C590000883
:1000E000B7010008B7010008B7010008B701000810
:1000F000B7010008B7010008B7010008B701000800
:10010000B7010008B7010008B7010008B7010008EF
:10011000B7010008B7010008B7010008B7010008DF
:10012000B7010008B7010008B7010008B7010008CF
:10013000B70100080000000000000000B70100083F
:10014000B7010008B7010008B7010008A979000845
:10015000B7010008B7010008B7010008B70100089F
:10016000B7010008B7010008B7010008B70100088F
:10017000B7010008B70100080000000000000000FF
:10018000B7010008B7010008DFF80CD000F070FBE1
:1001900000480047B1C700083019002006488047D2
:1001A00006480047FEE7FEE7FEE7FEE7FEE7FEE75C
:1001B000FEE7FEE7FEE7FEE76D8A0008890100081A
:1001C0002DE9F05F0546002092469B46884606468C
:1001D000814640241BE0284641464746224600F01F
:1001E00062FA53465A46C01A914110D31146184636
:1001F000224600F049FA2D1A67EB01084F462246C5
:100200000120002100F040FA17EB00094E41201EAA
:10021000A4F10104DFDC484631462A464346BDE8E6
:10022000F09F40EA01039B0703D009E008C9121FB1
:1002300008C0042AFAD203E011F8013B00F8013BA0
:10024000521EF9D27047D2B201E000F8012B491ECC
:10025000FBD270470022F6E710B513460A46044663
:100260001946FFF7F0FF204610BD30B505462A4677
:100270000B4612F8010B13F8014B08B1A042F8D05D
:100280001CB1002802D06D1CF1E7284630BD421C8D
:1002900010F8011B0029FBD1801A70472DE9FE4F91
:1002A000804681EA0300C00F0C46009021F0004117
:1002B00023F00045B8EB0200A94105D24046214693
:1002C00090461C460B46024623F00040104347D0A0
:1002D000270DC7F30A00C3F30A510290401A019098
:1002E00040286BDAC3F3130040F4801B0098924659
:1002F00020B10023D2EB030A63EB0B0B01985946A4
:10030000C0F14002504600F0BFF906460D46504687
:100310005946019A00F0D7F910EB0800614100241A
:1003200087EA115284EAE7731A4340D0009A62B315
:10033000019A012A4FEA075215DC001B61EB02010A
:100340004FF0004202EA0752CDE90042001C41F59D
:10035000801132462B4600F00EFA03B0BDE8F08F54
:1003600040462146F9E7001B61EB0201001C41F504
:10037000801300185B412018A2F5001747EB03011A
:1003800040EAD570B6196D4111E06D084FEA3606A6
:1003900045EAC0754FEA0752001B61EB0201001CE1
:1003A00041F5801149084FEA3000001951413246A9
:1003B0002B4603B0BDE8F04F00F0CEB90098012203
:1003C00040000023D0EB020263EBE073009821466B
:1003D0004FEAE074B8EB000061EB0401E9E783F059
:1003E00000435BE781F0004158E72DE9FE4F81EAC9
:1003F000030404F0004421F0004100944FF0000B8E
:1004000023F0004350EA01045ED052EA03045BD0BB
:10041000C3F30A54C1F30A552C44A4F2F3340194F3
:10042000A0FB0254C1F3130141F48011C3F3130381
:1004300043F4801301FB024400FB034E840A970A35
:1004400044EA815447EA8357A4FB076802958D0A62
:1004500005FB07854FEA932C04FB0C542705029DEE
:100460004FEA065847EA1637B5EB08056EEB070C5E
:10047000870E920E47EA811742EA8312A7FB020118
:10048000B6EB0B0164EB00042B0D43EA0C335E1852
:1004900044EB1C50DA465146E7FB0201C5F3130456
:1004A0004FEA0B3343EA14534FEA0432019C43EA08
:1004B0000603A4F10C040294009CCDE900B400F002
:1004C0005AF903B0BDE8F08F00200146F9E72DE9A5
:1004D000F04D81EA030404F0004B21F0004514467E
:1004E0004FF0000A23F0004150EA050220D054EA00
:1004F00001021DD0C5F30A570246C5F31303C1F329
:100500001300C1F30A5640F4801543F48013A7EB9F
:100510000608101BD64608F2FD3873EB050002D31F
:1005200008F1010801E092185B41B8F1000F03DA0D
:1005300000200146BDE8F08D00204FF480110646F2
:1005400084460EE0171B73EB050705D3121B63EB04
:10055000050306434CEA010C49084FEA30009218A3
:100560005B4150EA0107EDD152EA030012D082EA62
:10057000040083EA0501084305D0101BAB4106D2F5
:100580000122002306E000224FF0004302E06FF05A
:10059000010253101AEB06004CEB085110EB0A0055
:1005A00041EB0B01BDE8F04D00F0D6B80EB5C10F20
:1005B00080EAE0700844CA07002140F233438DE826
:1005C0000E000A460B4600F0D6F803B000BD00F05E
:1005D000004230F000400AD0C10D01F56071C0F357
:1005E000160042EA0151C20840071143704700203B
:1005F0000146704730B5041E71F1000404DB4FF072
:100600000044404264EB0101141E73F1000405DB59
:100610001C464FF00043524263EB0403994208BF6B
:10062000904230BD01F0004330B421F0004150EA67
:10063000010206D00A0DA2F56072C1F31301002A6F
:1006400002DC30BC00207047440F44EAC104C10002
:10065000E01830BC00EBC25000F047B830B50B4694
:10066000014600202022012409E021FA02F59D42E2
:1006700005D303FA02F5491B04FA02F52844151EB6
:10068000A2F10102F1DC30BD202A04DB203A00FA9D
:1006900002F1002070479140C2F1200320FA03F3D9
:1006A000194390407047202A04DB203A21FA02F0D7
:1006B0000021704721FA02F3D040C2F1200291409C
:1006C000084319467047202A06DBCB17203A41FA27
:1006D00002F043EAE07306E041FA02F3D040C2F1CF
:1006E000200291400843194670470029A8BF70476F
:1006F000401C490008BF20F00100704710B4B0FA58
:1007000080FC00FA0CF050EA010404BF10BC7047F2
:1007100049B1CCF1200421FA04F411FA0CF118BF0C
:10072000012121430843A3EB0C01CB1D4FEA0061DB
:100730004FEA102042BF002010BC704700EBC350AE
:1007400010440029A4BF10BC7047401C490008BFDA
:1007500020F0010010BC704710B5141E73F10004A6
:1007600008DA401C41F1000192185B411A4301D1A3
:1007700020F0010010BD2DE9F04D92469B4611B1CD
:10078000B1FA81F202E0B0FA80F220329046FFF72F
:100790007BFF04460F4640EA0A0041EA0B0153463C
:1007A0005A46084313D0114653EA010019D0C8F144
:1007B00040025046FFF777FF05460E465046594621
:1007C0004246FFF761FF084305D0012004E02046C0
:1007D0003946BDE8F08D0020054346EAE0762C431B
:1007E00037430A986305E40AA0EB08000022FD0ADB
:1007F00044EA47540A3002D500200146E9E70105E2
:1008000010196941DDE9084500196941BDE8F04D5D
:10081000A2E770B521F0004303430CD0C1F30A55A1
:100820000024D5EB040564EB0403D617AD1AB341DD
:1008300002DB0020014670BD201841EB025170BD63
:10084000C1F30A52C1F3130140F2FF3341F48011A6
:100850009A4202DA00200146704740F233439A423E
:10086000A2F2334202DC5242FFF71DBFFFF70CBF7A
:10087000064C074D06E0E06840F0010394E80700ED
:1008800098471034AC42F6D3FFF782FC5C2A01088B
:100890007C2A01082DE9F04D00231A461B1A8A41D3
:1008A00003DB00200146BDE8F08DC1F30A52C1F31D
:1008B000130141F480154FF0000BD10702D100184D
:1008C0006D41521E0027044640F2FF11384601EBED
:1008D000620A3E468046024600204FF48011FFF730
:1008E000E2FEC2197141BB1846EB0100B4EB030CE8
:1008F00075EB000C04D3E41A65EB000517460E46B1
:10090000241908F101006D4180463428E3DDF9190E
:1009100046EB0600091BA84103D24FF0FF321346F5
:1009200001E0002213461BEB070046EB0A51BDE82D
:10093000F04DFFF711BF00004A494A6822F44032E7
:100940004A604A6843681A434A6001684A6822F468
:1009500080724A6001684A68036942EA03224A6079
:1009600001684A6822F040724A6001684A688368F8
:100970001A434A6001688A6822F400628A6001684A
:100980008A68C3681A438A60816A6FF07062D142D4
:1009900014D001688A6822F070628A6001688A68EF
:1009A000836A1A438A6001688A6822F040528A602A
:1009B00001688A68C36A1A438A6009E001688A6824
:1009C00022F070628A6001688A6822F040528A6070
:1009D00001688A6822F002028A6001688A68037EE0
:1009E00042EA43028A6090F8201089B101684A689F
:1009F00042F400624A6001684A6822F460424A6038
:100A000001684B68426A521E43EA42324A6004E07F
:100A100001684A6822F400624A600168CA6A22F4E6
:100A20007002CA620168CB6A828B521E43EA02528C
:100A3000CA6201688A6822F400728A6001688A6862
:100A400090F8303042EA43228A6001688A6822F4D2
:100A500080628A6001688A68406942EA8020886012
:100A600070470000002301402DE9F041184F4FF47A
:100A70008071384601F0E4FE0125164C0026E8B1ED
:100A800026604FF40071384601F0DAFEC0B16660AE
:100A90004FF48061384601F0D3FE98B1A6600E4F46
:100AA0002021384601F0CCFE70B1E6604021384686
:100AB00001F0C6FE50B12661BDE8F0812560E0E797
:100AC0006560E5E7A560EAE7E560EFE72561F3E744
:100AD00000000240340000200008024038B50446FF
:100AE000204604F03FF9204600F013F838B16A467A
:100AF0005021204600F057F818B1002038BD0020E2
:100B000038BD9DF80000A52801D0002038BD012087
:100B100038BD10B564230322A02102F0CFF908B13B
:100B2000002010BD012010BD30B589B00546104829
:100B30001E2301AA0021006800F01CF810B100205B
:100B400009B030BD9DF821009DF8201040EA012435
:100B50001C2101A80BF0CCFD844201D00020EFE75E
:100B60001C2201A92846FFF75CFB0120E8E70000F2
:100B7000480000202DE9FC41044615461E4601911F
:100B80006427012301AAA0212046009702F0A2FBBE
:100B9000002806D133462A46A0212046009702F0BD
:100BA00049FABDE8FC817CB50546164601916424EE
:100BB000012301AAA0212846009402F08BFB002803
:100BC00006D101233246A0212846009402F032FAD1
:100BD0007CBD000010B588B001461C226846FFF7B6
:100BE00020FB1C2168460BF083FD010A8DF81C10C8
:100BF0008DF81D000A4C1E236A460021206800F073
:100C000033F810B1002008B010BDA5225021206893
:100C100000F008F808B10020F5E70120F3E7000034
:100C2000480000207CB505468DF804108DF805209D
:100C300001F014FE00F1140405E001F00FFEA042E3
:100C400001D903207CBD0A230322A021284602F0FB
:100C500035F90028F1D164200090022301AAA021D7
:100C6000284602F037FB7CBD2DE9F84F82460E4640
:100C7000914698460025082745E0B6FBF7F007FBAC
:100C80001060381A84B2A8EB0500A04200DA84B2E2
:100C900001F0E4FD00F1140B06E001F0DFFD584522
:100CA00002D90320BDE8F88F0A230322A021504671
:100CB00002F004F90028F0D1601C0BF0A1FD83467E
:100CC0008BF8006009EB050122460BF10100FFF7EC
:100CD000A8FA64200090601C83B25A46A0215046B6
:100CE00002F0F8FA28B1044658460BF039FD2046C8
:100CF000D8E7281985B2301986B2052001F092FC98
:100D000058460BF02DFD4545B7D30020CAE700003B
:100D10002DE9FE4301244FF6FF7550237B221E214F
:100D20000520009504F039FD00264FF01009CDE9AB
:100D300001961F2341A223210A20009504F0E6FE1C
:100D40000C274FF01F08CDE900872B463FA23C211E
:100D50001920029604F0DAFECDE901761F233DA2A8
:100D60003C215020009504F0D1FE04F01FFC052822
:100D700020D006281ED00128F7D1384844604FF40F
:100D8000FA77012C42D006F097FE37237B221E21F2
:100D90000520009504F001FDCDE901961F2330A246
:100DA00023210A20009504F0B1FE3846BDE8FE4339
:100DB00001F038BCACB10024012C14D0CDE901768F
:100DC0001F2322A23C211920009504F09FFECDE9AB
:100DD00000872B461FA23C215020029604F096FE6D
:100DE000C3E70124E8E7CDE900872B4617A23C21A1
:100DF0001920029604F08AFECDE901761F2315A280
:100E00003C215020009504F081FEAEE706F05CFE28
:100E100037237B221E210520009504F0BEFCCDE97E
:100E200001961F2312A223210A20009504F06EFED2
:100E30003846BDE8FE4301F0F5BB0000CAC7B7F174
:100E4000BFAAC6F4BFD5B5F7A3BF0000BFAAC6F4BA
:100E500000000000B9D8B1D5000000006C000020EF
:100E6000BFD5B5F7D2D1B9D8B1D5A3A10000000044
:100E7000BFD5B5F7D2D1B4F2BFAAA3A1000000003C
:100E800010B5094C01221146204601F0E0FC322049
:100E900001F0C8FB00220121204601F0D8FCBDE88A
:100EA0001040322001F0BEBB0004024010B5084CD7
:100EB00001221146204601F0CAFC322001F0B2FBAB
:100EC00020460022BDE81040012101F0C0BC000016
:100ED0000004024000220121014801F0B8BC0000DA
:100EE0000004024001221146014801F0B0BC00009C
:100EF00000040240FEE770B50546D5F87C03C469DE
:100F000094F84E0003281AD0042817D1217B2846D4
:100F100008F024FE012811D1217B284608F009FEA3
:100F2000A16A814215D0628B824212D1091AA16254
:100F3000216A08442062032084F84E0070BD237BA0
:100F4000628B2846216A08F007F9042084F84E00D5
:100F500070BD002084F84E00284608F069FA70BD84
:100F6000F8B50546D5F87C03C469012694F84D0010
:100F700001280CD0022809D1617B284608F0EEFD3B
:100F800001281AD0022801D184F84D60F8BD228BC7
:100F9000606A904206D90096637B2846E16908F0B2
:100FA000EBF806E0009682B2637B2846E16908F020
:100FB000E3F8022084F84D00F8BD208B616A00221E
:100FC000814205D9091A6162E1690844E06100E0E3
:100FD0006262606A10B184F84D60F8BD84F84D20FB
:100FE000284608F028FAF8BD70B50024002000F06B
:100FF00053F8134D04E0641CE4B2012001F024FB1B
:101000000221284601F01CFC08B1642CF3D3642CA7
:1010100001D3012070BD002404E0641CE4B201206F
:1010200001F012FB0221284601F00AFC08B9642CE9
:10103000F3D3642C01D3012070BD002070BD0000EB
:101040000000024010B586B000241148016841F04C
:1010500001010160006800F001000090142101A866
:10106000FFF7F8F802200190012102910394049007
:10107000084C01A9204601F0FBFA0122022120467A
:1010800001F0E5FB00F084F8FFF7AEFF06B010BDFD
:10109000303802400000024010B586B004461421EA
:1010A00001A8FFF7D7F802220192002124B1012004
:1010B00002900391049201E00291039101A9024878
:1010C00001F0D6FA06B010BD0000024070B5002451
:1010D000134D04E0641CE4B2012001F0B5FA0221D2
:1010E000284601F0ADFB08B1642CF3D3002404E0E2
:1010F000641CE4B2012001F0A7FA0221284601F0A5
:101100009FFB08B9642CF3D3282001F09DFA02213B
:10111000284601F095FB08B1012070BD002070BD8C
:101120000000024070B5002000244006050EFFF7C5
:10113000CDFF2843641CE4B2082CF6D370BD2DE922
:10114000FC4106460F4600F023F8FFF74DFF10B1B3
:101150000120BDE8FC8100246D46FFF7E3FF285520
:10116000641CE4B2052CF8D39DF800109DF8010032
:101170009DF803300A189DF8020003441A449DF8B4
:1011800004309A4201D1397030700020E1E700004C
:1011900010B50120FFF780FF094C002202212046F4
:1011A00001F055FB142001F03DFA012202212046F6
:1011B00001F04DFBBDE810400D2001F045BA0000E4
:1011C000000002400A48016821F080710160016856
:1011D00041F0807101600748016821F00101016060
:1011E000016841F001010160002141607047000089
:1011F000FCED00E0001000E02DE9FE4F48F27F65B5
:101200000021102382220846009504F0C6FA1F240C
:1012100082231A4610210020009404F0BEFA822393
:101220001A4672210020009504F0B7FA4FF6FF7AB3
:101230007823822219460020CDF800A004F055FA48
:101240004FF000090C268DE8600253467BA2022174
:10125000282004F05BFC8DE8600253467AA27221DC
:10126000222004F053FC8DE86002534678A27221DC
:101270003A2004F04BFC8DE86002534676A27221BE
:101280002E2004F08BFE1025DFF8D0B1744E01271C
:1012900004F08CF9804604F03DFF86ED010A05F06C
:1012A00031F886ED020A05F0BBF886ED030A6C49B9
:1012B000491C481EFFF743FF32786AA16A4809F0CB
:1012C0006FFE6948727869A1143009F069FE706890
:1012D000FFF77DF941EC100B634853EC102B66A12E
:1012E0003C3809F05DFEB068FFF771F941EC100B76
:1012F0005D4853EC102B63A1283809F051FEF068CB
:10130000FFF765F941EC100B574853EC102B5DA12A
:10131000143809F045FE8DE8300253465CA21421D2
:10132000052004F0F3FB8DE8300253465AA2272132
:10133000052004F0EBFB8DE83002534658A23A2119
:10134000052004F0E3FB8DE83002534656A24D2100
:10135000052004F0DBFB8DE83002534655A26021E6
:10136000052004F0D3FB8DE8300253463E4A142199
:10137000272004F013FE3C4A8DE830022721534613
:101380001432084604F00AFE374A8DE8300253460C
:101390003C3A3A21372004F001FE334A8DE830020E
:1013A0005346283A4D21462004F0F8FD2E4A8DE898
:1013B00030025346143A6021462004F0EFFD06F057
:1013C0009DFB07F04DFAB8F1010F0FD03078DBF834
:1013D0000010814208DBDBF80410814204DC7178E4
:1013E000DBF80800884205DAB76105E0BDE8FE4F8A
:1013F00003F014BBC6F818909BED050AD6ED020A5F
:10140000B4EEE00AF1EE10FA08D39BED060AD6ED31
:10141000030AB4EEE00AF1EE10FA01D2776101E0BE
:10142000C6F814909BED040AD6ED010AB4EEE00A6A
:10143000F1EE10FA7FF72CAF376129E7BBB7BEB3E7
:10144000BCE0B2E200000000B3A4B0B400000000B1
:10145000BCFCB7B5BBD80000304B0000400A0020F0
:10146000840000203A256400180A00203A256420F0
:1014700025255248200000003A252E3166202525DA
:10148000200000003A252E316670704D00000000EB
:10149000CEC2B6C800000000CAAAB6C8000000004C
:1014A000B9E2D5D5D6B50000B6FED1F5BBAFCCBC00
:1014B00000000000D1CCCEEDC5A8B6C800000000E9
:1014C00070B504460020002204EB8001C1F884239B
:1014D000401C1028F8D300204FF40075211881F823
:1014E0001C21401CA842F9D3227062700120A07018
:1014F000C4F8C42320764021A171627684F81C23AD
:1015000084F81D0384F81F2384F81E23010204F1CC
:101510001C00FEF79FFE294604F58E70FEF79AFE2A
:10152000122104F22630FEF795FE3E2104F54E709E
:10153000FEF790FE002070BD70472DE9FF4F81B08F
:1015400006460F460025039C50E0A7EB0508A6EBD6
:1015500004091FFA88F11FFA89F0049A04F012F9BD
:101560001FFA88F106EB04081FFA88F0049A04F0C9
:1015700009F9381981B2A6EB050A00901FFA8AF022
:10158000049A04F0FFF8A7EB040B1FFA8BF11FFA83
:101590008AF0049A04F0F6F807EB050A1FFA8AF1BC
:1015A0001FFA88F0049A04F0EDF806EB05081FFA1C
:1015B0008BF11FFA88F0049A04F0E4F80098049A7A
:1015C00081B21FFA88F004F0DDF81FFA8AF11FFAE1
:1015D00089F0049A04F0D6F86D1C05FB05F004FBB5
:1015E000040103984043814200DD641EA542ACDD46
:1015F00005B0BDE8F08F00002DE9FE4301244FF651
:10160000FF7550237B221E210520009504F0C5F8AC
:1016100000264FF01009CDE901961F2341A2232196
:101620000A20009504F072FA0C274FF01F08CDE94C
:1016300000872B4640A23C211920029604F066FA4E
:10164000CDE901761F233EA23C215020009504F0F5
:101650005DFA03F0ABFF052820D006281ED0012834
:10166000F7D13948C4604FF4FA77012C42D006F024
:1016700003FA37237B221E210520009504F08DF804
:10168000CDE901961F2331A223210A20009504F001
:101690003DFA3846BDE8FE4300F0C4BFACB10024BB
:1016A000012C14D0CDE901761F2323A23C2119205F
:1016B000009504F02BFACDE900872B4620A23C21AF
:1016C0005020029604F022FAC3E70124E8E7CDE9AE
:1016D00000872B4618A23C211920029604F016FA26
:1016E000CDE901761F2316A23C215020009504F07D
:1016F0000DFAAEE706F0C8F937237B221E2105203C
:10170000009504F04AF8CDE901961F2313A2232186
:101710000A20009504F0FAF93846BDE8FE4300F0CF
:1017200081BF0000CAC7B7F1BFAAC6F4CAD2CDE2D2
:10173000B5C6A3BF00000000BFAAC6F400000000A9
:10174000B9D8B1D5000000006C000020CAD2CDE2AB
:10175000B5C6D2D1B9D8B1D5A3A10000CAD2CDE2C5
:10176000B5C6D2D1B4F2BFAAA3A100003EB51F25D1
:101770007E2356211A460846009504F00EF84FF6CF
:10178000FF747D2357211A460846009404F005F89B
:101790006B2378225B215C20009503F0FEFF692318
:1017A0006E225D215E20009403F0F7FF23460322A2
:1017B00061217320FFF7C1FE67237622194670204E
:1017C000009403F092FF0C21CDE90041002002902B
:1017D0001F2303A26E215D2004F098F93EBD000096
:1017E000C9E8B1B8000000003EB51F247E23562191
:1017F0001A460846009403F0D0FF4FF6FF756B239E
:1018000078225B215C20009503F0C7FF69236E22DC
:101810005D215E20009403F0C0FF1F23032261219D
:101820007320FFF78AFE6723762219467020009402
:1018300003F05BFF0C21CDE90041002002902B4614
:1018400002A26E215D2004F061F93EBDC9E8B1B885
:10185000000000002DE9FE4F48F27F6A00211023AE
:1018600082220846CDF800A003F097FF1F258223AF
:101870001A4610210020009503F08FFF0C27CDE9B8
:1018800000A700261F23FDA202212820029604F0B3
:101890003DF90224CDE901764FF6FF794B46FAA2D5
:1018A00021215020009504F031F903F07FFE80469D
:1018B0002246F6A1F74809F073FBCDE901764B46C5
:1018C000F5A212210520009504F020F9CDE901765A
:1018D0004B46F4A221210520009504F017F9CDE92B
:1018E00001764B46F2A230210520009504F00EF956
:1018F000CDE901764B46F1A23F210520009504F089
:1019000005F9CDE901764B46EFA24E210520009561
:1019100004F0FCF8CDE901764B46EEA25D210520EE
:10192000009504F0F3F8CDE901764B46ECA26C216A
:101930000520009504F0EAF8CDE900A71F23D54A59
:1019400002216920029604F029FBB8F1030F03D0AD
:10195000B8F1040F05D008E0641C072C05DD012454
:1019600003E0641E012C00DA0724B8F1030F0ED047
:10197000B8F1040F0BD0B8F1010F96D1082C94D216
:10198000DFE804F004FDFCFBFAF9F8F78DE7082C1A
:101990008BD2DFE804F004054585C5F7F6F584E74A
:1019A000CDE901764B46B8A212215020009504F0F3
:1019B000ADF8CDE901764B46CCA22121502000950F
:1019C00004F0ECFACDE901764B46C8A23021502054
:1019D000009504F0E3FACDE901764B46C3A23F211E
:1019E0005020009504F0DAFACDE901764B46BFA20B
:1019F0004E215020009504F0D1FACDE901764B46F6
:101A0000BAA25D215020009504F0C8FACDE9017614
:101A10004B46B6A26C215020009504F0BFFA44E773
:101A2000CDE901764B46B1A212215020009504F079
:101A3000B5FACDE901764B4693A2212150200095BD
:101A400004F064F8CDE901764B46A8A2302150207D
:101A5000009504F0A3FACDE901764B46A3A23F21FD
:101A60005020009504F09AFACDE901764B469FA2EA
:101A70004E215020009504F091FACDE901764B46B5
:101A80009AA25D215020009504F088FACDE90176F4
:101A90004B4696A26C215020009504F07FFA04E793
:101AA000CDE901764B4691A212215020009504F019
:101AB00075FACDE901764B468CA221215020009584
:101AC00004F06CFACDE901764B466FA2302150202C
:101AD000009504F01BF8CDE901764B4683A23F2127
:101AE0005020009504F05AFACDE901764B467FA2CA
:101AF0004E215020009504F051FACDE901764B4675
:101B00007AA25D215020009504F048FACDE90176D3
:101B10004B4676A26C215020009504F03FFAC4E6B3
:101B2000CDE901764B4671A212215020009504F0B8
:101B300035FACDE901764B466CA221215020009563
:101B400004F02CFACDE901764B4668A230215020F2
:101B5000009504F023FACDE901764B464AA23F21D5
:101B60005020009503F0D2FF4E214B465FA250203B
:101B700009E08DE178E163E14EE139E124E11FE123
:101B8000D7E058E017E0CDE90176009504F006FAB9
:101B9000CDE901764B4655A25D215020009504F019
:101BA000FDF9CDE901764B4650A26C2150200095FD
:101BB00004F0F4F979E6CDE901764B464BA2122107
:101BC0005020009504F0EAF9CDE901764B4647A292
:101BD00021215020009504F0E1F9CDE901764B4632
:101BE00042A230215020009504F0D8F9CDE90176C9
:101BF0004B463EA23F215020009504F0CFF9CDE99D
:101C000001764B4620A24E215020009503F07EFF26
:101C1000CDE901764B4635A25D215020009504F0B8
:101C2000BDF9CDE901764B4630A26C2150200095DC
:101C300004F0B4F939E6CDE901764B462BA2122126
:101C40005020009504F0AAF9CDE901764B4627A271
:101C500021215020009504F0A1F9CDE901764B46F1
:101C600022A230215020009504F098F9CDE90176A8
:101C70003F214B461DA25020009539E0C9E8B1B87C
:101C8000B9DCC0ED00000000A1FB000025642F3787
:101C900000000000C8090020B7B5BBD8D6F7D2B302
:101CA00000000000B5C6B9E2C9E8D6C300000000D4
:101CB000BFD5B5F7C9E8D6C300000000B4B0BBA7D4
:101CC000C9E8D6C300000000CAD2CDE2B5C6C9E853
:101CD000D6C30000D3CDD1CCBBFAC9E8D6C300002F
:101CE000C8C8CBAEC6F7C9E8B1B8000020200000D4
:101CF00004F054F94B46AFF20C02CDE901764E21C7
:101D00005020009504F04AF94B46AFF28402CDE929
:101D100001765D215020009503F0F8FE4B46AFF2AE
:101D20003402CDE901766C215020009504F036F99B
:101D3000BBE54B46AFF24C02CDE9017612215020B3
:101D4000009504F02BF94B46AFF26002CDE9017625
:101D500021215020009504F021F94B46AFF2740286
:101D6000CDE9017630215020009504F017F94B465B
:101D7000AFF28802CDE901763F215020009504F0B2
:101D80000DF94B46AFF29C02CDE901764E21502071
:101D9000009504F003F94B46AFF2B002CDE90176AD
:101DA0005D215020009504F0F9F84B46AFF228125F
:101DB000CDE901766C215020009503F0A7FE74E573
:101DC000BDE8FE4F02F02ABE04F0BAF982231A469B
:101DD00010210020009503F0E0FC4B46AFF25812B2
:101DE000CDE9017621215020009503F08FFE5CE5BE
:101DF000FEF78EFF82231A4610210020009503F083
:101E0000CCFC4B46AFF28012CDE901763021502058
:101E1000009503F07BFE48E508F0FAFF82231A469E
:101E200010210020009503F0B8FC4B46AFF2A81239
:101E3000CDE901763F215020009503F067FE34E59F
:101E4000FFF7DAFB82231A4610210020009503F0E9
:101E5000A4FC4B46AFF2D012CDE901764E215020C2
:101E6000009503F053FE20E506F086FF82231A4614
:101E700010210020009503F090FC4B46AFF2F812C1
:101E8000CDE901765D215020009503F03FFE0CE581
:101E900002F002FE82231A4610210020009503F072
:101EA0007CFC4B46AFF22022CDE901766C2150201C
:101EB000009503F02BFEF8E472B6FEE72DE9F04141
:101EC00088B04748FEF70AFE4648FEF72DFE454813
:101ED000016800297ED1416800297ED181680029EE
:101EE0007BD1C168002978D190ED040AB5EEC00A13
:101EF000F1EE10FA71D190ED050AB5EEC00AF1EEDF
:101F000010FA6AD190ED060AB5EEC00AF1EE10FAA9
:101F100063D11F24142382220846009403F03DFC61
:101F20004FF6FF7782231A4614210020009703F012
:101F300034FC00251020CDE901053B462AA20221F0
:101F4000009403F0E3FD0C26CDE900761F232AA2BE
:101F500017211C20029503F0D9FDCDE900761F233F
:101F60002AA226210420029503F0D0FDCDE90076B7
:101F70001F232CA235210420029503F0C7FDCDE9D3
:101F800000761F232DA244210420029503F0BEFDFC
:101F9000CDE900761F232FA253210420029503F0E0
:101FA000B5FD09244FF47A7822462DA103A808F044
:101FB000F7FFCDE900761F2303AA442114200295E0
:101FC00003F0ECFF404600F02DFB641EE4B2002C51
:101FD000EAD100E001E005F0A7FE08B0BDE8F0811D
:101FE0002C010020400A0020CAD7B4CEE3D0D6B5D9
:101FF000C9E8D6C300000000BCECB2E2B5BDC4E342
:10200000C9D0CEB4C9E8D6C300000000B9FDE3D002
:10201000D6B5A3ACCFB5CDB3D0E8D2AAC9E8D6C364
:1020200000000000E3D0D6B5B1A3D5CFD5FDB3A352
:10203000B9A4D7F7A3ACC7EB00000000D4DA202086
:10204000C3EBBAF3B6D4CFB5CDB3E3D0D6B5BDF8B4
:1020500000000000D0D0C9E8D6C3A1A30000000052
:1020600025640000A12202742122427400224282CF
:1020700082820722C28207F003BA000070B5714C59
:102080008A6990F83C20012A19D0012280F83C206E
:102090000A680725092A14D90368DE680A3A02EBA0
:1020A00042029540AE43DE600A788B680A3A02EB42
:1020B000420293400268D5682B43D36011E00220AE
:1020C00070BD03681E6902EB42029540AE431E617B
:1020D0000A788B6802EB42029340026815692B4331
:1020E00013610268936B23F4401393630268956B4A
:1020F0000B8A5B1E45EA035393630A790B7CD21A61
:10210000D21C02EB82021F2393400268956B9D4311
:1021100095630A790B7CD21A0B88D21C02EB8202DF
:102120009BB293400268956B2B4393638A69A242EA
:1021300014D00268936823F4702393600268936854
:102140008C69234393600268936823F4401393607F
:1021500002689368CC692343936009E0026893683E
:1021600023F4702393600268936823F44013936010
:102170004A7D2AB10268536843F48063536004E0E7
:102180000268536823F4806353600A7D2AB10268B1
:10219000536843F48053536004E00268536823F4A7
:1021A000805353604A68012A16D0022A1FD0032A9E
:1021B00028D00268136A6FF30B0313620268136A74
:1021C000CC6823431362204A204B04689C4228D1E8
:1021D0000C68122C21D024E0026853696FF30B03C2
:1021E000536102685369CC6823435361EBE702688B
:1021F00093696FF30B03936102689369CC6823437F
:102200009361E0E70268D3696FF30B03D36102685F
:10221000D369CC682343D361D5E7546844F4800480
:10222000546004689C4208D10968102901D0112922
:1022300003D1516841F400015160002180F83C1045
:10224000002070BD01000F0000230140002001406C
:1022500078B50024009490F83C20012A19D001227E
:1022600080F83C200A680725092A14D90368DE682B
:102270000A3A02EB42029540AE43DE600A788B6870
:102280000A3A02EB420293400268D5682B43D360BE
:1022900011E0022078BD03681E6902EB42029540FE
:1022A000AE431E610A788B6802EB420293400268DB
:1022B00015692B4313614A681F25072A13D2036847
:1022C0005E6B521E02EB82029540AE435E630A884B
:1022D00093B20A79521E02EB820293400268556B58
:1022E0002B43536328E00D2A13D203681E6BD21FC1
:1022F00002EB82029540AE431E630A8893B20A79CC
:10230000D21F02EB820293400268156B2B431363CA
:1023100012E00368DE6A0D3A02EB82029540AE439A
:10232000DE620A8893B20A790D3A02EB8202934088
:102330000268D56A2B43D362174A184B05689D4241
:1023400006D10D68122D03D1556845F480055560FE
:1023500005689D421BD10B68102B01D0112B16D1A3
:10236000536843F400035360096810290FD10C49E6
:102370000C4A0968B1FBF2F101EB810149000091BF
:1023800002E00099491E009100990029F9D180F8D6
:102390003C40002078BD00000023014000200140A7
:1023A0001000002040420F000068C06C704770B5FC
:1023B00004460026002C03D0206C002510B107E055
:1023C000012070BD204600F01DF8656484F83C5083
:1023D000206CC00610D4206C20F4885040F002001D
:1023E00020642046FEF7A8FA6564206C20F0020005
:1023F00040F00100206400E0012684F83C503046A3
:1024000070BD000010B586B00446142101A8FDF788
:1024100021FF1149206888421CD100210F48026821
:1024200042F480720260006800F4807000900B48F3
:102430001438026842F004020260006800F00400F0
:1024400000900720019003200290039101A9044805
:1024500000F00EF906B010BD0020014044380240E3
:10246000000802402DE9F04104460D4620688168CD
:102470004FF0000749050BD58068C00508D5206CD2
:1024800040F02000206484F83C700120BDE8F08119
:1024900000F0E4F9064613E0681C11D025B100F005
:1024A000DDF9801BA8420BD920680068800707D49B
:1024B000206C40F00400206484F83C700320E5E7C1
:1024C000206800688007E7D521686FF01200086077
:1024D000206C40F4007020642068816811F0405F37
:1024E00013D1217E89B9C16A11F4700F02D08068BE
:1024F00040050AD4206C20F480702064206CC00455
:1025000003D4206C40F0010020640020BEE70000EE
:1025100018B50022009290F83C10012907D0012143
:1025200080F83C1001688B68DB0702D014E00220C1
:1025300018BD8B6843F001038B603449344B096844
:10254000B1FBF3F101EB4101009102E00099491E5A
:10255000009100990029F9D101688B68DB074BD005
:10256000036C40F20164A34343F4807303644B683B
:102570005B0505D5036C23F4005343F480530364D7
:10258000036CDB0404D5436C23F00603436400E0D2
:10259000426480F83C201F4A6FF022030B605168B0
:1025A000CA061D4907D0006888422DD1816811F004
:1025B000405F1CD028E0006888420FD0174A904244
:1025C00003D1D1F80423D20608D0154A90421BD17A
:1025D000D1F8041301F01F01102915D2816811F000
:1025E000405F11D1816841F0804181600CE08168D9
:1025F00041F08041816007E0016C41F0100101640D
:10260000416C41F001014164002018BD1000002020
:1026100040420F0000230140002001400021014002
:102620000022014070B5044600F018F90546601C10
:1026300002D004480078044400F010F9401BA04286
:10264000FAD370BD0400002010B506494B68064A55
:10265000064C1268B2FBF4F242434868C01A90423A
:10266000FBD310BD001000E01000002040420F001E
:102670002DE9F84F0022DFF89C914FF00108032765
:102680004FF00F0C09F1040AA9F1040B08FA02F546
:102690000B682B40AB426ED10C7904F00304012C83
:1026A00001D0022C15D18668540007FA04FE26EAF0
:1026B0000E06D1F80CE00EFA04FE4EEA060EC0F843
:1026C00008E04468AC430D79C5F3001595402543F7
:1026D00045600C79E443A40708D0C568540007FAA4
:1026E00004F6B5438E68A6402E43C6600C7904F00C
:1026F0000304022C11D1D40800EB8406356A540778
:10270000E40E0CFA04FE25EA0E05D1F810E00EFAEC
:1027100004FE4EEA050EC6F820E00568540007FAEC
:1027200004F6B5430E7906F00306A6402E43066074
:102730004C6814F4403F67D0374C256845F4804519
:102740002560246804F480440094344C22F003058E
:102750002E19D6F8085894074FEA147E0CFA0EF496
:10276000A5432F4CA04201D1002424E02D4CA042CF
:1027700002D101241FE047E02B4CA04201D10224EA
:1027800019E02A4CA04201D1032414E0284CA042B5
:1027900001D104240FE0274CA04201D105240AE016
:1027A000254CA04201D1062405E0244CA04201D1D1
:1027B000072400E0082404FA0EF42C43C6F8084865
:1027C000D9F800409C434D68ED0200D51C43C9F880
:1027D0000040DAF800409C434D68AD0200D51C4330
:1027E000CAF80040DBF800409C434D68AD0300D5BB
:1027F0001C43CBF80040074D083D2C689C434E68B5
:10280000F60300D51C432C60521C102AFFF43EAF87
:10281000BDE8F88F083C01404438024000300140D8
:10282000000002400004024000080240000C024088
:10283000001002400014024000180240001C024038
:102840000069084201D00120704700207047002A2B
:1028500001D0816170470904816170470148806837
:102860007047000004000020D0F8DC0307F039B9FD
:10287000D0F8DC0307F03EB9006807F000BE00683E
:1028800007F001BEC1EB011100EB8100002200F84E
:102890001A2F4270C272827200207047C1EB011180
:1028A00000EB810090F84C007047C1EB011100EB88
:1028B0008100806B704710B5044694F8D40301285A
:1028C00009D0012084F8D403206807F0E8FD002037
:1028D00084F8D40310BD022010BD2DE9FF4F83B052
:1028E0000546DDE91078129E8A46934695F8D40392
:1028F00001281CD0012385F8D433CAEB0A1005EB5C
:1029000080044FF0000984F819900698207584F827
:1029100015A084F826800BF07F00A075514628464C
:10292000FFF7B0FF5FEA0B6005D5E37505E0022015
:1029300007B0BDE8F08F84F81790286807F0A3FD72
:10294000B8F1010F05D1012F03D110B9BC2E00D968
:10295000BC262776B0B22085CDE9007802902868A1
:102960005A465146069B07F015FE85F8D493DFE7DB
:1029700070472DE9F003DDE9078C069F099DC1EB47
:10298000011400EB8404E27584F826300226002F3F
:102990000AD084F82A60002563B1012B4FD0022BA6
:1029A00027D0032B4DD137E04FF0030984F82A904C
:1029B0006576F0E7012F44D11AB1A27E012A0FD02B
:1029C0003FE0BCF1000F02D1012284F83D2094F8D1
:1029D0003D2012B184F82A6033E084F82A5030E0B8
:1029E00094F83C2012B184F82A602AE084F82A5036
:1029F00027E02AB194F83C205AB184F82A6020E0FC
:102A000094F83D2012B184F82A601AE084F82A5024
:102A100017E084F82A5014E02AB194F83C205AB107
:102A200084F82A600DE094F83D2012B184F82A6001
:102A300007E084F82A5004E084F82A5001E084F882
:102A40002A50C4F82C80C4F834C084F84C50A563D4
:102A5000617584F84D50827904F114010068BDE875
:102A6000F00307F031BE2DE9F04104462068064628
:102A700007F011FD012876D1206808F009F8002838
:102A800071D0206808F004F8800203D521684FF463
:102A900000104861206807F0FBFFC00203D52168E1
:102AA0004FF480104861206807F0F2FF400103D521
:102AB00021684FF080604861206807F0E9FF8007D7
:102AC00002D5216802204861206807F0E1FF8000FC
:102AD00018D521684FF000504861D6F84004C0076F
:102AE00010D11021304607F0A8FC304607F085FCD5
:102AF000607A022803D10121206807F0A3FF204655
:102B0000FFF7B6FE206807F0C3FFC00102D52046DC
:102B100001F0EFFE206807F0BBFF000705D5204657
:102B200000F0D3F8216808204861206807F0B0FF62
:102B3000800125D5206807F0C3FD074600254FF02A
:102B4000010816E005F00F0108FA01F038420FD035
:102B500006EB4510D0F80005000405D5E9B2204683
:102B600001F01DFB04E01EE0E9B2204601F024FD67
:102B70006D1C6079A842E5D821684FF0007048616B
:102B8000206807F085FFC043C0060CD42068816927
:102B900021F010018161204601F0FBFE206881696F
:102BA00041F010018161BDE8F081F8B50446002CC8
:102BB00005D0256894F8D503002610B106E0012061
:102BC000F8BD84F8D463204600F032F8032084F87E
:102BD000D503B5F1A04F00D1A671206807F0D4FB52
:102BE000207C8DF8000094E80F0007F05FFB0225C1
:102BF00018B184F8D5530120F8BD0121206807F0F1
:102C000084FF18B184F8D5530120F8BD207C8DF8DD
:102C1000000094E80F0007F09FFE18B184F8D55328
:102C20000120F8BD012084F8D5030020F8BD000084
:102C300010B586B00446142101A8FDF70BFB2068EF
:102C4000B0F1A04F2FD100211848026842F00102D4
:102C50000260006800F0010000904FF4C050019045
:102C6000022002900391032004900A20059001A9FC
:102C70000F48FFF7FDFC0D48001D016841F0800181
:102C800001600A481430016841F480410160006825
:102C900000F48040009000221146432000F05EFCCA
:102CA000432000F04DFC06B010BD0000303802405B
:102CB00000000240D0F8DC0306F093BFD0F8DC033C
:102CC00006F096BF006807F006BFD0F8DC0306F0F8
:102CD00049BF10B5044694F8D40301280DD0012053
:102CE00084F8D4030121206807F064FB206807F012
:102CF0007EFB002084F8D40310BD022010BD10B567
:102D0000044694F8D403012809D0012084F8D403A0
:102D1000206807F02AFF002084F8D40310BD0220A9
:102D200010BD000070B50446002C04D094F83D009E
:102D3000002510B106E0012070BD84F83C5020460B
:102D400000F06CFB242084F83D002068016821F02D
:102D5000010101602068016841F4004101602068C0
:102D6000016821F40041016000F0D6FC4F4B61681E
:102D7000994203D84E49884203D304E04D49884222
:102D800001D2012070BD4C49B0FBF1F122685668B8
:102D900026F03F060E43566062689A4201D8491CED
:102DA00007E04FF4967251434FF47A72B1FBF2F19F
:102DB000491C2268166A26F03F0631431162616899
:102DC000994210D84900401EB0FBF1F2521CC2F3E8
:102DD0000B02042A01D2042022E0B0FBF1F0401CD7
:102DE000C0F30B001CE0A268F2B301EBC10303EBDC
:102DF0000116431EB3FBF6F35B1C43F480431B0533
:102E000049D092B301EBC10202EB0111401EB0FBAD
:102E1000F1F0401CC0F30B0040F4804040F400404F
:102E20002168CA694CF6FF739A431043C861D4E91C
:102E3000071001432068026822F0C00211430160BC
:102E4000D4E9030101432068826848F2FF339A43C2
:102E500011438160D4E9051001432068C26822F063
:102E6000FF021143C16001E00EE016E02068016836
:102E700041F0010101602564202084F83D002563B4
:102E800084F83E50002070BD01EB4106431EB3FBA9
:102E9000F6F35B1CB3E70120C2E701EB4101401EE2
:102EA000B0FBF1F0401CC0F30B00B7E7A0860100B7
:102EB00080841E0000093D0040420F002DE9FF4FB5
:102EC00081B004468B461F46FFF7C8FC0546002626
:102ED00094F83D00202803D0022005B0BDE8F08F13
:102EE0001923012251492046009502F067F808B1E4
:102EF0000220F2E794F83C00012807D0012084F872
:102F00003C0020680168C90702D005E00220E4E720
:102F1000016841F0010101602068016821F400614D
:102F20000160242084F83D004FF0000AC4F840A05E
:102F30003F48E0624FF020092068016841F4807149
:102F400001603B4600224FF001112046009502F03F
:102F500035F840B120680068C00502D54FF4007014
:102F600020640320B9E721680BF0FE000861FFF739
:102F700075FC054620684169C1F340014069C0F312
:102F800080204FF0A0080EE0FFF768FC401BB8421D
:102F900000D80FB984F83D8020684169C1F3400131
:102FA0004069C0F3802094F83D20A02A02D009B9DE
:102FB0000028E9D084F83D9020684169C943890719
:102FC00018D42168096841F40071016020684169E2
:102FD000806900901923012214492046009501F0D0
:102FE000EDFF08B1012078E784F83D9084F83CA01B
:102FF000002072E7016841F40071016021686FF4FC
:10300000806048611923012208492046009501F09B
:10301000D5FF08B1012060E7761C039886428BD368
:1030200084F83D9084F83CA0012056E7020010008F
:103030000000FFFF2DE9F84F04468A4617469946DF
:10304000DDF82880FFF70AFC054694F83D002028AB
:1030500002D00220BDE8F88F192301229A492046A8
:10306000009501F0ABFF08B10220F3E794F83C00B3
:10307000012807D0012084F83C0020680168C907B6
:1030800002D005E00220E5E7016841F0010101609E
:103090002068016821F400610160222084F83D006D
:1030A000102084F83E00002626646762A4F82A9067
:1030B000608D20858548E0622B4642465146204679
:1030C00001F06EFE08B10120C4E7208D70B1012827
:1030D00015D0022821D02068016841F48061016088
:1030E0002068416980690090794FE1E0206841697A
:1030F00081690091016841F400710160F4E7206882
:10310000016821F480610160206841698169009152
:10311000016841F400710160E6E72068016821F46C
:10312000806101602068016841F4006101602068ED
:10313000416980690090D7E703287DD801280BD02A
:1031400002281FD04346002239462046009501F050
:1031500035FFE8B301207DE72A464146204601F0CD
:10316000E7FF08B1012075E720680069616A08700F
:10317000606A401C6062208D401E2085608D401E6C
:10318000608595E04346002239462046009501F0CF
:1031900015FF08B101205DE72068016841F4007166
:1031A000016020680069616A0870606A401C6062A2
:1031B000218D491E2185618D491E6185216809691E
:1031C0000170606A401C6062208D401E208500E016
:1031D00003E0608D401E60856AE02068016821F48C
:1031E0008061016020680069616A0870606A401C43
:1031F0006062208D401E2085608D401E60854346A4
:10320000002239462046009501F0D8FE08B1012081
:1032100020E72068016841F40071016020680069BE
:10322000616A0870606A401C6062218D491E2185B8
:10323000618D491E618500E00CE02168096901701B
:10324000606A401C6062208D401E2085608D401E9B
:1032500060852DE02A464146204601F069FF08B10D
:103260000120F7E620680069616A0870606A401C06
:103270006062208D401E81B22185608D401E608578
:1032800020684269D243520712D4032903D101684E
:1032900021F48061016020680069616A0870606AD9
:1032A000401C6062208D401E2085608D401E608520
:1032B000208D00287FF440AF20203C346070A67041
:1032C00026700020C6E60000020010000000FFFF8C
:1032D000040001002DE9F84F04468A461546994638
:1032E000DDF82880FFF7BAFA064694F83D0020285A
:1032F00002D00220BDE8F88F19230122454920465B
:10330000009601F05BFE08B10220F3E794F83C0060
:10331000012807D0012084F83C0020680168C90713
:1033200002D005E00220E5E7016841F001010160FB
:103330002068016821F400610160212084F83D00CB
:10334000102084F83E00002727646562A4F82A90C4
:10335000608D20853048E062334642465146204623
:1033600001F0A8FD08B10120C4E720684169806927
:1033700000903EE032464146204601F014FF48B13D
:10338000206C042804D12068016841F400710160B8
:103390000120AFE7606A216800780861656A6D1CEA
:1033A0006562608D401E6085208D401E80B2208544
:1033B00022685169C94349070BD450B1287810617C
:1033C000606A401C6062608D401E6085208D401EDA
:1033D000208532464146204601F0C4FD48B1206CAC
:1033E000042804D12068016841F4007101600120C3
:1033F00080E7208D0028BDD11F3454F81F0C0168D0
:1034000041F4007101602020A077E7776777002002
:1034100070E70000020010000000FFFF10B586B04A
:103420000446142101A8FCF715FF144920688842BE
:1034300021D100211248026842F0020202600068B5
:1034400000F0020000904FF44070019012200290B2
:103450000391032004900420059001A90948FFF777
:1034600007F907481030016841F400110160006855
:1034700000F40010009006B010BD000000540040A1
:10348000303802400004024002488168027811444A
:10349000816070470400002010B50B48016841F4BA
:1034A00000710160016841F480610160016841F4CC
:1034B00080710160032000F071F80F2000F006F821
:1034C00000F026F8002010BD003C024070B5044614
:1034D0000D4D4FF47A712878B1FBF0F00B49096873
:1034E000B1FBF0F000F04EFB08B1012070BD102CD4
:1034F00007D200222146501E00F030F86C600020F8
:1035000070BD012070BD00000400002010000020EC
:1035100008B50A48016841F480410160006800F480
:10352000804000900548001F016841F08051016013
:10353000006800F08050009008BD00004438024050
:10354000002809DB00F01F020121914040098000A2
:1035500000F1E020C0F8001170470000F0B40D4603
:103560000D4B1B68C3F30223C3F10704042C00D9DD
:103570000424191D072901D2002300E0DB1E0126C7
:1035800006FA04F1491E294099409E40761E1640D5
:103590003143F0BC07F030BD0CED00E000F0070156
:1035A000054A10684FF6FF03184040EA012003491E
:1035B00008431060704700000CED00E00000FA05C1
:1035C0002DE9F04704460D46002C13D0DFF8289172
:1035D000D9F80000EFB200F00700A8420CD289F839
:1035E0000070D9F8000000F00700A84204D00120C4
:1035F000BDE8F0870120FBE72068404E810712D527
:10360000400703D5306840F4E05030602078000770
:1036100003D5306840F4604030603068A16820F025
:10362000F000084330602078C00731D0334960682B
:103630000839012808D002280BD0032809D00968CE
:1036400089070BD40120D3E70968890306D4012038
:10365000CEE70968890101D40120C9E7316821F06A
:10366000030101433160FFF7F9F8804641F2883ADF
:1036700007E0FFF7F3F8A0EB0800504501D903205D
:10368000B6E73068616800F00C00B0EB810FF0D154
:10369000D9F8000000F00700A84209D989F80070A5
:1036A000D9F8000000F00700A84201D001209FE7F0
:1036B0002078400705D53068E16820F4E0500843E1
:1036C00030602078000706D53068216920F460401A
:1036D00040EAC100306000F03FF83168084AC1F3A9
:1036E0000311515CC8400749086007480068FFF7AC
:1036F000EDFE00207CE70000003C0240083802405C
:10370000DAC8000810000020080000200148006806
:10371000704700001000002000B5FFF7F7FF0449D4
:103720000968044AC1F38221515CC84000BD000011
:1037300008380240EAC8000800B5FFF7E7FF04496F
:103740000968044AC1F34231515CC84000BD000021
:1037500008380240EAC8000810B51748006810F0A1
:103760000C01164816D0164B042912D0082911D185
:10377000114C241F216801F03F02216849020AD53B
:103780002068C0F38810A0FB03010023FCF718FD9C
:1037900009E0184610BD21680023C1F38811A1FB80
:1037A0000001FCF70DFD2168C1F30141491C4900EE
:1037B000B0FBF1F010BD0000083802400024F40016
:1037C00000366E012DE9F84F0446002C13D0207806
:1037D000DFF8A083C007A8F1040556D008F1040063
:1037E0000168C1F3810101290CD00068C0F3810098
:1037F000022803D00DE00120BDE8F88FD8F80000C2
:10380000400206D5286880033FD5606870BB012060
:10381000F2E76068B0F5803F10D0B0F5A02F12D06D
:10382000286820F480302860286820F480202860F0
:103830006068E0B1FFF712F8064614E0286840F42B
:1038400080302860F4E7286840F4802028602868E9
:1038500040F480302860EBE7FFF700F8801B642815
:1038600001D90320C8E728688003F5D50DE0FEF7ED
:10387000F5FF064606E0FEF7F1FF801B642801D93C
:103880000320B9E728688003F5D42078BA4F800771
:103890004FF0000948D5B748001D016811F00C0F22
:1038A00008D00068C0F38100022813D1D8F80000C6
:1038B00040020FD42868800704D5E068012801D0B1
:1038C000012099E72868216920F0F80040EAC1004A
:1038D000286029E0E068B8B101203860FEF7BEFF3B
:1038E000064606E0FEF7BAFF801B022801D9032036
:1038F00082E728688007F5D52868216920F0F8005C
:1039000040EAC10028600FE0C7F80090FEF7A6FF6C
:10391000064606E0FEF7A2FF801B022801D903201D
:103920006AE728688007F5D42078000729D5DFF8F2
:1039300044A2924861690AF1700A89B101210160CB
:10394000FEF78CFF064606E0FEF788FF801B022884
:1039500001D9032050E7DAF800008007F4D510E021
:10396000C0F80090FEF77AFF064606E0FEF776FF05
:10397000801B022801D903203EE7DAF80000800707
:10398000F4D42078400778D54FF0000A79483C30CD
:103990000068C0000BD477483C30016841F080518A
:1039A0000160006800F0805000904FF0010ADFF8DD
:1039B000D0B1DBF80000C00514D4DBF8000040F4FF
:1039C0008070CBF80000FEF749FF064606E0FEF7E0
:1039D00045FF801B022801D903200DE7DBF800001A
:1039E000C005F4D5634EA0686C3601280FD00528B9
:1039F00012D0306820F001003060306820F0040000
:103A00003060A068F8B1FEF729FF834617E0306800
:103A100040F001003060F4E7306840F004003060AE
:103A2000306840F001003060EBE7FEF717FFA0EBD5
:103A30000B0141F28830814201D90320DCE6306875
:103A40008007F2D510E0FEF709FF834609E0FEF794
:103A500005FFA0EB0B0141F28830814201D9032020
:103A6000CAE630688007F2D4BAF1010F05D14148A7
:103A70003C30016821F080510160A069C0B33D492C
:103A8000091D09684FF0FF36C1F38101022946D0B4
:103A9000022805D0C7F86090FEF7E0FE04463AE041
:103AA000C7F86090FEF7DAFE814607E0FEF7D6FE23
:103AB000A0EB0900022801D903209DE628688001B7
:103AC000F4D4D4E907010843616AA26A890106EBCC
:103AD000520241EA0241084394F82C1040EA016086
:103AE000C8F8000001203866FEF7B8FE044607E07B
:103AF0003DE0FEF7B3FE001B022801D903207BE660
:103B000028688001F5D532E0FEF7A8FE001B0228E8
:103B100001D9032070E628688001F5D427E0012848
:103B200023D0D8F80000E26900F4800191421AD154
:103B3000226A00F03F01914215D147F6C071626AD6
:103B40000140B1EB821F0ED1A26A00F4403106EBB6
:103B50005202B1EB024F06D194F82C1000F07060C5
:103B6000B0EB016F03D0012046E6012044E60020BF
:103B700042E600000438024000004742800E4742FF
:103B80000070004010B5401EB0F1807F01D30120CD
:103B900010BD4FF0E02460610F21601707F02CFA90
:103BA0000020A06107202061002010BD70B590F8B2
:103BB0003C20012A31D0012680F83C60022280F8A6
:103BC0003D2002685468936824F070050C682C430B
:103BD0005460134C0268A24214D0B2F1804F11D04D
:103BE000104CA2420ED0104CA2420BD00F4CA2425D
:103BF00008D00F4CA24205D00E4CA24202D00E4C6F
:103C0000A24204D123F080034968194391603C30FB
:103C1000467000210170002070BD022070BD0000C0
:103C2000000001400004004000080040000C00407B
:103C300000040140004001400018004010B5044657
:103C4000002C03D094F83D0010B107E0012010BD16
:103C5000002084F83C00204600F016F8022084F88A
:103C60003D00211D206804F009FF01203D346072F1
:103C70006070A070E07020716071A071E0712072BE
:103C80002070002010BD000008B50068B0F1804F22
:103C900008D10548016841F001010160006800F0A9
:103CA0000100009008BD00004038024070B5044695
:103CB000002594F83C00012817D0012684F83C60C8
:103CC000022084F83D002068826822F0770222F406
:103CD0007F4282600868502838D00DDC202853D0FD
:103CE00005DC90B3102811D14EE0022070BD3028C1
:103CF0004AD040280AD13DE0602831D070280CD04D
:103D0000B0F5805F03D0B0F5005F12D001253C34E0
:103D1000667000202070284670BDCB68D1E9012173
:103D2000206804F022FF2068816841F077018160FB
:103D3000EDE7CB68D1E90121206804F016FF206887
:103D4000816841F480418160E1E71DE0CA6849680B
:103D5000206804F0EDFF5021206804F010FFD6E742
:103D6000CA684968206804F0F4FF6021206804F004
:103D700006FFCCE7CA684968206804F0D9FF4021F3
:103D8000206804F0FCFEC2E722680146104604F0F9
:103D9000F6FEBCE710B586B00446142101A8FCF776
:103DA00059FA2068B0F1804F14D100210A48026806
:103DB00042F001020260006800F001000090012062
:103DC00001900222029203910491059001A90348F7
:103DD000FEF74EFC06B010BD303802400000024035
:103DE00070B504460D46002694F83C0001280FD01B
:103DF000012084F83C006AB1042A1FD0082A32D07E
:103E00000C2A44D00126002084F83C00304670BDC6
:103E1000022070BD2946206804F0BAFE206881693E
:103E200041F0080181612068816921F0040181610C
:103E3000206881692A6911438161E4E72946206885
:103E400004F0DAFE2068816941F400618161206834
:103E5000816921F480618161206881692A6941EA70
:103E600002218161CFE72946206804F0FFFE206827
:103E7000C16941F00801C1612068C16921F00401F4
:103E8000C1612068C1692A691143C161BBE7294644
:103E9000206804F023FF2068C16941F40061C1611A
:103EA0002068C16921F48061C1612068C1692A6903
:103EB00041EA0221C161A6E710B50446002C03D0F7
:103EC00094F83D0010B107E0012010BD002084F8F7
:103ED0003C00204600F015F8022084F83D00211D2A
:103EE000206804F0CBFD01203D3460726070A0704A
:103EF000E07020716071A071E0712072207000206C
:103F000010BD704710B50446002909D004290AD015
:103F100008290BD094F8410001280AD0012010BDD7
:103F200094F83E00F8E794F83F00F5E794F8400075
:103F3000F2E70220A9B3042937D0082938D084F841
:103F400041000122206804F003FE1E4920681E4A39
:103F5000884201D0904203D1436C43F40043436450
:103F60002068884213D0B0F1804F10D017498842A2
:103F70000DD0174988420AD01649884207D090428E
:103F800005D01549884202D01449884213D181686E
:103F900001F00701062912D0016841F0010101601A
:103FA0000DE0FFE784F83E00CBE784F83F00C8E768
:103FB00084F84000C5E7016841F00101016000207C
:103FC00010BD00000000014000040140000400405A
:103FD00000080040000C0040004001400018004074
:103FE00070B50446002C04D094F84100002510B1AF
:103FF00006E0012070BD84F84050204600F024F80F
:10400000242084F841002068C16821F40051C16077
:10401000204604F093FF2068016921F4904101617A
:104020002068416921F02A0141612068C16841F49A
:104030000051C1606564202084F8410084F842008A
:104040006563002070BD00002DE9F04186B0044694
:10405000142101A8FCF7FEF82149206888423CD1D0
:1040600000272048016841F480210160006800F4C5
:10407000802000901B481038016841F00201016067
:10408000006800F0020000904FF48060019002246C
:104090000294012003900326049607250595DFF876
:1040A000488001A94046FEF7E3FAA002019002947D
:1040B00003970496059501A94046FEF7D9FA002218
:1040C00011462720FFF74AFA2720FFF739FA074859
:1040D0000068C16841F02001C16006B0BDE8F08110
:1040E000004800404038024000040240C80100205F
:1040F0002DE9F84304460E4615461F4694F8410044
:10410000202802D00220BDE8F8837EB175B10020DE
:104110006064212084F84100FEF7A0FB8146A5845D
:10412000E584A068B0F5805F02D003E00120EAE7F3
:10413000206920B1354600264FF0200815E0002503
:10414000FAE74B46002280212046009704F080FFCA
:1041500018B184F841800320D5E7ADB1216815F886
:10416000010B4860E08C401EE084E08C0028E8D120
:104170004B46002240212046009704F069FF50B1D1
:1041800084F841800320BEE736F8020B2168C0F3B3
:1041900008004860E6E784F841800020B3E72DE995
:1041A000F05F05460E4628688346314606F068FCF7
:1041B000C6EB061140074FF007074FF0040805EB68
:1041C00081040AD50BEB4610C0F8088584F84D70C1
:1041D0003146286806F063F94BE03146286806F05E
:1041E0004FFCC0054FF008090CD50BEB46114FF4FE
:1041F0008070C1F8080584F84D903146286806F0B3
:104200004EF936E03146286806F03AFC00070BD537
:104210000BEB4610C0F80895062084F84D00314697
:10422000286806F03CF924E03146286806F028FCAE
:1042300040050DD50BEB46114FF48060C1F8080521
:10424000092084F84D003146286806F028F910E06E
:104250003146286806F014FC00060AD50BEB46111F
:104260008020C1F8080584F84D703146286806F0B2
:1042700016F93146286806F003FC80050BD5314657
:10428000286806F00CF90BEB46114FF40070C1F8EA
:104290000805BDE8F09F3146286806F0F1FBC0072D
:1042A0004FF0200A4FF001094FF0000751D00BEBFF
:1042B0004618C8F808A5E07E012806D1E776D8F8A8
:1042C000040520F48030C8F80405A87930B1206BCB
:1042D000D8F81015C1F31201401AA0634A4684F8B9
:1042E0004D906764C8F8082594F8260030B102287C
:1042F00004D003280AD0012808D013E031462868EA
:1043000006F0CDF81020C8F808050BE0D8F8000535
:1043100040F00050C8F8000584F84C20314628468B
:10432000FEF726FBA879012805D014F83C0F80F091
:1043300001002070ADE7208DA16B0144491EB1FB47
:10434000F0F0C007A5D014F83C0F80F001002070F9
:104350009FE73146286806F093FB800611D50BEBEA
:104360004610C0F808A5A07E012892D184F81B90C1
:10437000032084F84D0031462868BDE8F05F06F060
:104380008EB83146286806F07BFB80074FF0050A9F
:104390007DD50BEB46100222C0F8082594F84D108D
:1043A000012916D0062919D007291CD009291AD0AD
:1043B00005293ED0032971D004296AD0082969D083
:1043C0000229B7D094F84C2031462846FEF7D0FA9F
:1043D0005FE784F84D2084F84C90F3E784F84D2093
:1043E00084F84CA0EEE784F84D20616C491C6164B0
:1043F00002290ED96764A17E012907D1E7762777C4
:10440000D0F8041521F48031C0F8041584F84C80EC
:10441000D8E784F84C2094F8261009B10229D1D1AC
:10442000D0F8001521F0804141F00041C0F800159E
:10443000C8E784F84D20E17E0129C3D194F8261005
:1044400003290FD084F84C2094F8261009B10229D2
:10445000B8D1D0F8001521F0804141F00041C0F8FA
:104460000015AFE7A16C491CA164022913D9A76408
:10447000E776616C032901D284F81C90D0F804150A
:1044800021F48031C0F8041584F84C80DCE744E066
:1044900004E028E039E084F84C20D5E784F84D208A
:1044A000E17E01298ED184F84C2000F2045001688D
:1044B00041F480310160816841F040018160816890
:1044C00021F020018160A0F2045094F8261009B177
:1044D000022987D1D0F8001521F0804141F0004138
:1044E000C0F800156EE784F84D2084F84C2094F84D
:1044F000261009B102298BD1D0F8001521F0804196
:1045000041F00041C0F800155CE784F84D20606C74
:10451000401C606484F84C8054E73146286806F0FB
:10452000AFFA40060FD50BEB46114020C1F8080545
:1045300084F84DA0A07E00B9676431462868BDE8C4
:10454000F05F05F0ACBF3146286806F099FAC00666
:104550007FF5F0AE94F82600032803D050B102286E
:1045600008D013E0676484F84D803146286805F070
:1045700096FF0BE06764A87910B1E07E012805D1B1
:1045800084F84D803146286805F089FFE07E0128D7
:104590000CD1E7760BEB461000F20450016821F4D1
:1045A00080310160816841F0200181600BEB461190
:1045B0001020C1F808056CE62DE9F05F05460F46AE
:1045C00028680646394606F05BFAC7EB0711400734
:1045D0004FF0040B05EB81040CD506EB4710C0F837
:1045E00008B5072084F84D0039462868BDE8F05F1B
:1045F00005F055BF3946286806F042FA80064FF0AC
:1046000000084FF0010A4FF0020928D506EB4711C8
:104610002020C1F80805607E0326012809D184F80E
:10462000198084F84C9084F84D603946286805F06C
:1046300036FFA07E012810D1E07E00280DD194F82D
:104640002600012801D084F81BA084F84D6039466B
:10465000286805F024FFC4F84480BDE8F09F39467F
:10466000286806F00DFA80050BD506EB47114FF4CC
:104670000070C1F8080539462868BDE8F05F05F00C
:104680000EBF3946286806F0FBF9C00726D0C4F8EB
:1046900044803946286806F0F3F9400606D584F8C8
:1046A00019A006EB47114020C1F80805E07E48B18B
:1046B00084F81B8006EB4710D0F8041521F48031F4
:1046C000C0F8041506EB4710C0F808A584F84DA003
:1046D00039462868BDE8F05F05F0E1BE3946286834
:1046E00006F0CEF9400612D5052084F84D00A07ED4
:1046F00008B984F819A0C4F844803946286805F040
:10470000CEFE06EB47114020C1F80805A5E7394663
:10471000286806F0B5F900070DD506EB471108200B
:10472000C1F80805062084F84D0039462868BDE820
:10473000F05F05F0B4BE3946286806F0A1F9C0065E
:1047400013D5C4F8448084F84DB0607E18B9207E3B
:1047500008B984F819A03946286805F0A0FE06EBD0
:1047600047111020C1F8080577E73946286806F098
:1047700087F900062AD5A87970B1606C401C606486
:10478000022811D9C4F844805A4684F84CB03946FE
:104790002846FEF7EDF813E0072084F84D0039466F
:1047A000286805F07CFE0BE084F84C9006EB47107F
:1047B000D0F8001521F0804141F00041C0F800150B
:1047C00006EB47118020C1F8080546E739462868FE
:1047D00006F056F940050DD5092084F84D003946FC
:1047E000286805F05CFE06EB47114FF48060C1F8C5
:1047F000080532E73946286806F042F9800785D572
:1048000006EB4711C1F8089594F84D00012817D020
:1048100003283AD0042840D005284ED0062851D08D
:10482000072801D009289FD184F84D90606C401C66
:10483000606402284CD9C4F8448084F84CB051E03C
:1048400084F84D9084F84CA094F82600022801D0FA
:10485000032847D1A87928B994F83D0080F00100D9
:1048600084F83D00A87901283CD1606B20B3218DEC
:104870000844401EB0FBF1F0C00733D094F83D006F
:1048800080F0010084F83D002CE084F84D90E07E3B
:10489000012827D184F84C9024E084F84D9084F8C6
:1048A0004C90E07E01281DD184F81B80D1F80405CE
:1048B00020F48030C1F8040514E084F84D9084F8A9
:1048C0004C900FE084F84D90052084F84C0009E0EE
:1048D00084F84C90D1F8000520F0804040F0004072
:1048E000C1F8000594F84C2039462846FEF740F8F8
:1048F000B3E67CB505462C68D4F840040190D4F8A2
:1049000040040090009820F02E000090019880074D
:1049100009D50198C00702D02846FDF7A5FF0098E9
:1049200040F0020000900198000727D5009840F061
:1049300008000090019840071DD5687A022803D02E
:10494000E87901280FD012E00198C0F34140022815
:1049500004D00121286806F075F808E002212868D3
:1049600006F070F803E04EF66020C4F80404284610
:10497000FEF7A4F902E02846FEF79CF901988006AC
:1049800003D5009840F0200000900098C4F840043F
:104990007CBD2DE9F041034618680746016A01F025
:1049A0000F06C1F34342C1F30A15022A2ED1002D8E
:1049B0002CD0C6EB061103EB8104E16A002925D057
:1049C000A26B636B2A449A4222D8AAB206F064F81A
:1049D000E06A2844E062A06B2844A06307EB46101D
:1049E000D0F81015C1F3C941228DAA420ED1002979
:1049F0000CD0D0F8001521F0804141F00041C0F802
:104A0000001514F83C0F80F001002070BDE8F08123
:104A1000042084F84C00F9E7FEE70000FEB548F2F8
:104A20007F64822300211A460846009400F0B5FEF8
:104A300000251820CDE901052B4611A2552100942F
:104A4000072001F063F81026CDE901651F230EA2AF
:104A50006E210320009401F0A1FACDE901651F2326
:104A60000CA20F210C20009401F098FA00F0CCF871
:104A700002F056FF03F020FEBDE8FE40FCF7B4BE96
:104A8000BBDBCFEDBCD20000534D41525420484F08
:104A90004D450000496F54002DE9FE4301244FF6B7
:104AA000FF7550237B221E210520009500F075FE26
:104AB00000264FF01009CDE901961F2341A22321C2
:104AC0000A20009501F022F80C274FF01F08CDE9CD
:104AD00000872B463FA23C211920029601F016F8D0
:104AE000CDE901761F233DA23C215020009501F025
:104AF0000DF800F05BFD052820D006281ED0012807
:104B0000F7D1384844614FF4FA77012C42D002F0D3
:104B1000E3FF37237B221E210520009500F03DFE98
:104B2000CDE901961F2330A223210A20009500F031
:104B3000EDFF3846BDE8FE43FDF774BDACB100247F
:104B4000012C14D0CDE901761F2322A23C2119208B
:104B5000009500F0DBFFCDE900872B461FA23C212A
:104B60005020029600F0D2FFC3E70124E8E7CDE928
:104B700000872B4617A23C211920029600F0C6FFA1
:104B8000CDE901761F2315A23C215020009500F0AD
:104B9000BDFFAEE702F0A8FF37237B221E210520D0
:104BA000009500F0FAFDCDE901961F2312A2232102
:104BB0000A20009500F0AAFF3846BDE8FE43FDF745
:104BC00031BD0000CAC7B7F1BFAAC6F4C8C8CBAE92
:104BD000C6F70000BFAAC6F400000000B9D8B1D5DE
:104BE000000000006C000020C8C8CBAEC6F7D2D1D0
:104BF000B9D8B1D5A3A10000C8C8CBAEC6F7D2D1F1
:104C0000B4F2BFAAA3A10000F8B5002450233722B4
:104C100028210F20009400F0C0FD4FF6FF754E23B1
:104C200035222A211120009500F0B7FD4E232B22BA
:104C30003F211C20009400F0B0FD1F264E232922A6
:104C400041211E20009600F0A8FD36232B222D21A5
:104C50001C20009400F0A1FD342329222F211E20C6
:104C6000009600F09AFD2223252219462320009564
:104C700000F03BFD2323282219462020009500F058
:104C800034FD24232B2219461D20009500F02DFD14
:104C900025232E2219461A20009500F026FD2623F2
:104CA000312219461720009500F01FFD27233422DA
:104CB00019461420009500F018FD202323222A21F4
:104CC0000A20009400F011FD212323222B210A2029
:104CD000009400F00AFD2A233C2220212320009486
:104CE00000F003FD2B233C2221212320009400F01F
:104CF000FCFC5023492237213520009400F04DFD63
:104D00004E23472239213720009500F046FD4E23DF
:104D1000462241213920009400F03FFD4E234422D9
:104D200043213B20009600F038FD3A2346221946E5
:104D30003D20009600F0D9FC3B23462219463D2039
:104D4000009600F0D2FC44223E233A211046009601
:104D500000F0CBFC45223E233A211046009600F09D
:104D6000C4FCF8BD014908607047000048000020FD
:104D700001684A69D24352050FD46FF480624A61D8
:104D8000002140F8301F202242738173026942F0F3
:104D90000402026101730120704700207047000087
:104DA0002DE9F84F04468B4692461D46E06A21687D
:104DB0000A6842F480620A60082808D0012806D0F8
:104DC00010F5803F03D0206B112806D00AE0206840
:104DD000016841F48071016004E02068016841F4D9
:104DE000807101604FF00118534600224146204671
:104DF000009500F0E3F84FF4007738B120680068C0
:104E0000C00500D527640320BDE8F88F2069DFF8CE
:104E1000A090B0F5804F10D021680BF44076F020C0
:104E200040EAD61008612B46524609F10601204699
:104E300000F01AF940B10120E6E721680BF0FF000D
:104E400040F00100086128E021680BF0FF000861D4
:104E50002B4652464946204600F006F908B101208B
:104E6000D2E72068416981690091016841F480714D
:104E700001605346002241462046009500F09EF80E
:104E800030B120680068C00500D527640320BBE767
:104E90002168F12040EAD61008612B465246494667
:104EA000204600F0E1F808B10120ADE70020ABE7B3
:104EB00002000100F8B504460D4617461E46E06A9A
:104EC000082808D0012806D010F5803F03D0206BB9
:104ED000122806D00AE02068016841F48071016060
:104EE00004E02068016841F4807101603B460022C3
:104EF0004FF001112046009600F060F840B12068A4
:104F00000068C00502D54FF4007020640320F8BD8E
:104F10002069B0F5804F0FD005F44070F02141EAD0
:104F2000D0102168086133463A460D49204600F00A
:104F30009BF830B10120F8BD216805F0FE00086142
:104F400002E02168E8B20861054933463A46891F04
:104F5000204600F089F808B10120F8BD0020F8BD16
:104F60000800010070B504460D4616461FE02046B5
:104F7000FFF7FEFE08B1012070BD681C17D0FDF7D9
:104F80006DFC801BA84200D88DB920684069C043E1
:104F900040070CD5002044F8300F20216173A07326
:104FA000216941F0200121612073012070BD20683A
:104FB0004069C0434007DAD4002070BD2DE9F047B6
:104FC0000446DDF820900D4690461E46C5F307477F
:104FD0002FE0701C2DD0FDF741FCA0EB0900B04282
:104FE00000D836BB012F17D02068806925EA000061
:104FF0000004000C1BD0002040451AD1002044F8CA
:10500000300F20216173A073216941F020012161DB
:1050100020730120BDE8F0872068406925EA000080
:105020000004000C01D00020E6E70120E4E70120A5
:10503000E2E7012F0BD02068806925EA0000000418
:10504000000C0FD000204045C3D00020E2E72068CC
:10505000406925EA00000004000C01D00020F2E7BE
:105060000120F0E70120EEE72DE9F04704460D4668
:10507000164698464FF000094FF0200AC5F307473F
:1050800043E020684069C043400517D420680168A8
:1050900041F40071016021686FF480604861C4F8D8
:1050A000309084F83DA084F83E90206C40F00400DD
:1050B000206484F83C900120BDE8F087701C24D067
:1050C000FDF7CCFBA0EB0800B04200D8EEB9012FF1
:1050D00014D02068806925EA00000004000C14D078
:1050E000C4F8309084F83DA084F83E90206C40F0E5
:1050F0002000206484F83C900120DDE720684069AE
:1051000025EA00000004000CEAD1012F08D0206835
:10511000806925EA00000004000CB2D10020CBE732
:105120002068406925EA00000004000CF6D0A8E7DA
:105130002DE9F04104460D46164600274FF02008A1
:105140002AE04069C043C0060FD421686FF0100008
:105150004861276384F83D8084F83E70206C2064A9
:1051600084F83C700120BDE8F081FDF777FB801BDF
:10517000A84200D885B920684069C04340060BD5D5
:1051800044F8307F84F80D80A773206940F0200038
:10519000206127730120E6E720684169C943490679
:1051A000CFD40020DFE770B504460D4616461FE059
:1051B0002046FFF7DDFD08B1012070BD681C17D047
:1051C000FDF74CFB801BA84200D88DB920684069D0
:1051D000C04300060CD5002044F8300F2021617335
:1051E000A073216941F0200121612073012070BD6D
:1051F00020684069C0430006DAD4002070BD00007A
:10520000FEB54FF6FF76822300211A460846009627
:1052100000F0C3FA1025CDE9006500241F2344A245
:105220001E211820029400F071FC05F0FCFC43A143
:1052300044A005F0A5FE4FF4FA70FDF7F3F942A182
:1052400040A005F09DFE40F6B830FDF7EBF942A115
:105250003CA005F095FE4FF4FA673846FDF7E2F9F9
:1052600041A138A005F08CFE3846FDF7DBF942A1DC
:1052700034A005F085FE41F27070FDF7D3F948497E
:1052800030A005F07DFE3846FDF7CCF945492DA04C
:1052900005F076FE3846FDF7C5F9434929A005F02B
:1052A0006FFE3846FDF7BEF940A126A005F068FE66
:1052B0003846FDF7B7F94A48006A012817D04FF47D
:1052C00078477923822269210020009700F065FA4F
:1052D000CDE90075334643A269210220029400F013
:1052E00015FCFBF7CDFDBDE8FE4000F0C3BE48F263
:1052F0007F667923822269210020009600F04DFA12
:10530000CDE900651F233CA269211920029400F019
:10531000FDFBFBF7E7FD00F0CBFE4FF47A70FDF7E5
:1053200081F9FBF7D7FDBDE8FE4000F0B9BE0000F3
:10533000D4C6B6CBC1ACBDD3D6D0000041540D0A03
:10534000000000002573000041542B524553544F78
:1053500052450D0A0000000041542B43574D4F4465
:10536000453D310D0A00000041542B4349504D5535
:10537000583D300D0A00000041542B43574A41501C
:105380003D2254656E64615F303437344530222CE1
:10539000223132333435363738220D0A000000000E
:1053A00054220108D0220108102A010841542B4D33
:1053B0005154545355423D302C2261314665334C93
:1053C0004F674B6C782F446576696365312F757331
:1053D00065722F757064617465222C310D0A0000AE
:1053E000A4000020C1ACBDD3CAA7B0DCC7EBD6D89F
:1053F000C6F4A3A100000000C1ACBDD3B3C9B9A6D7
:10540000A3A1000070B50EA52946FAF72EFF0446A9
:1054100094B12846FAF73BFF204400E0401C017895
:105420002029FBD00929F9D00A29F7D00D29F5D078
:1054300000783038092801D94FF0FF3070BD0000E6
:1054400022416972223A000070B50EA52946FAF78A
:105450000CFF044694B12846FAF719FF204400E0F7
:10546000401C01782029FBD00929F9D00A29F7D05E
:105470000D29F5D000783038092801D94FF0FF30D8
:1054800070BD000022486F74223A000070B50EA56E
:105490002946FAF7EAFE044694B12846FAF7F7FEE1
:1054A000204400E0401C01782029FBD00929F9D0D4
:1054B0000A29F7D00D29F5D000783038092801D90C
:1054C0004FF0FF3070BD0000224C69676874223ACB
:1054D0000000000070B50EA52946FAF7C6FE044686
:1054E00094B12846FAF7D3FE204400E0401C01782E
:1054F0002029FBD00929F9D00A29F7D00D29F5D0A8
:1055000000783038092801D94FF0FF3070BD000015
:1055100022536964654C69676874223A0000000090
:1055200070B50EA52946FAF7A0FE044694B12846A8
:10553000FAF7ADFE204400E0401C01782029FBD0A2
:105540000929F9D00A29F7D00D29F5D0007830388B
:10555000092801D94FF0FF3070BD000022545622B7
:105560003A00000070B50EA52946FAF77EFE044603
:1055700094B12846FAF78BFE204400E0401C0178E5
:105580002029FBD00929F9D00A29F7D00D29F5D017
:1055900000783038092801D94FF0FF3070BD000085
:1055A0002257696E646F77223A00000070B53D4D56
:1055B0004FF4807631462846FDF742F900B36E1568
:1055C00031462846FDF73CF938B32E1531462846BA
:1055D000FDF736F970B3EE1431462846FDF730F981
:1055E000A8B3AE1431462846FDF72AF980B37600F9
:1055F00031462846FDF724F958B30024204670BDF3
:105600003220FDF70FF831462846FDF719F900283A
:10561000F4D10124FBF74AFCF0E73220FDF702F851
:1056200031462846FDF70CF90028E7D10224FBF7A4
:105630003DFCE3E73220FCF7F5FF31462846FDF755
:10564000FFF80028DAD10324FBF730FCD6E701E0AD
:105650000DE019E03220FCF7E5FF31462846FDF762
:10566000EFF80028CAD10424FBF720FCC6E732205B
:10567000FCF7D8FF31462846FDF7E2F80028BDD1F7
:105680000524FBF713FCB9E73220FCF7CBFF3146CA
:105690002846FDF7D5F80028B0D10624FBF706FC14
:1056A000ACE70000000802402DE9F04105460F4636
:1056B00014461E462A2000F099FCAD1CA8B200F04A
:1056C00088FCA41CA0B200F084FC2B2000F08EFC0F
:1056D0007F1CB8B200F07DFC761CB0B200F079FC03
:1056E000BDE8F0412C2000F081BC2DE9FE4F0025E3
:1056F0000026171AA3EB010881468A46681E002F70
:1057000003DD4FF00101019107E003D14FF00001EB
:10571000019102E00190C7F10007B8F1000F03DD2D
:105720004FF00100009007E003D14FF0000000901F
:1057300002E00090C8F10008474501DD3C4600E06A
:1057400044464FF0000B601C029016E01FFA8AF1ED
:105750001FFA89F00C9A00F015F83D444644A54222
:1057600002DD2D1B01988144A64202DD361B009804
:1057700082440BF1010B1FFA8BFB02988345E5DB9A
:10578000BDE8FE8F10B514460B460246FFF78CFFAE
:105790002046BDE8104000F01CBC2DE9F0478046D3
:1057A000DDF820900D4616461F46781E83B2701E07
:1057B00082B229464046FFF777FF0AE0444604E0FC
:1057C000484600F006FC641CA4B2B442F8D36D1C39
:1057D000ADB2BD42F2D3BDE8F087000001225C21EA
:1057E0000148FDF734B800000000024010B5FFF793
:1057F000F5FF7E4C002240212046FDF728F864206A
:10580000FCF710FF012240212046FDF720F864201C
:10581000FCF708FF012208212046FDF718F8642054
:10582000FCF700FF112000F0E1FB7820FCF7FAFE06
:10583000B12000F0DBFB052000F0D5FB3C2000F0A0
:10584000D2FB3C2000F0CFFBB22000F0CFFB0520C4
:1058500000F0C9FB3C2000F0C6FB3C2000F0C3FB7D
:10586000B32000F0C3FB052000F0BDFB3C2000F09E
:10587000BAFB3C2000F0B7FB052000F0B4FB3C2055
:1058800000F0B1FB3C2000F0AEFBB42000F0AEFB1A
:10589000032000F0A8FBC02000F0A8FB282000F0A7
:1058A000A2FB082000F09FFB042000F09CFBC1201D
:1058B00000F09CFBC02000F096FBC22000F096FB9D
:1058C0000D2000F090FB002000F08DFBC32000F0C5
:1058D0008DFB8D2000F087FB2A2000F084FBC42084
:1058E00000F084FB8D2000F07EFBEE2000F07BFBBF
:1058F000362000F07BFB082000F075FB3A2000F01A
:1059000075FB052000F06FFBE02000F06FFB04202A
:1059100000F069FB222000F066FB072000F063FB2B
:105920000A2000F060FB2E2000F05DFB302000F02C
:105930005AFB252000F057FB2A2000F054FB2820BA
:1059400000F051FB262000F04EFB2E2000F04BFB18
:105950003A2000F048FB002000F045FB012000F059
:1059600042FB032000F03FFB132000F03CFBE12052
:1059700000F03CFB042000F036FB162000F033FB67
:10598000062000F030FB0D2000F02DFB2D2000F054
:105990002AFB262000F027FB232000F024FB2720F1
:1059A00000F021FB272000F01EFB252000F01BFB50
:1059B0002D2000F018FB3B2000F015FB002000F02C
:1059C00012FB012000F00FFB042000F00CFB132061
:1059D00000F009FB3A2000F009FB052000F003FB72
:1059E000292000F003FB012010BD00000000024050
:1059F0002DE9FF4F83B00746DDF844904FF00008D3
:105A000001974FEA590A5FEA4A7001D0012000E08D
:105A1000002000EBDA0000FB09F00290203A02F0CF
:105A2000FF0B049804994844401E83B207EB0A0018
:105A3000401E82B23846FFF737FE002554E0B9F128
:105A40000C0F24D0B9F1100F28D0B9F1180F2AD0BB
:105A5000B9F1200F4BD1294800EB8B10465D002493
:105A6000129838B30120A040304204D03846069A3C
:105A70000499FFF787FE7F1CBFB20198381A504582
:105A80002CD1019F0498401C80B204902AE01C494C
:105A90000BEB4B0001EB8000465DE0E7194800EBA3
:105AA0000B10465DDBE718490BEB4B0001EB0010D8
:105AB000465DD4E70120A040304203D0069800F0B4
:105AC00088FA02E0109800F084FA08F1010808F062
:105AD000FF08B8FBFAF00AFB108058B1641CE4B26E
